{
  "contractName": "EtherWallet",
  "abi": [
    {
      "inputs": [],
      "stateMutability": "nonpayable",
      "type": "constructor"
    },
    {
      "inputs": [],
      "name": "Owner",
      "outputs": [
        {
          "internalType": "address payable",
          "name": "",
          "type": "address"
        }
      ],
      "stateMutability": "view",
      "type": "function"
    },
    {
      "inputs": [],
      "name": "receiver",
      "outputs": [
        {
          "internalType": "address payable",
          "name": "",
          "type": "address"
        }
      ],
      "stateMutability": "view",
      "type": "function"
    },
    {
      "stateMutability": "payable",
      "type": "receive"
    },
    {
      "inputs": [],
      "name": "CheckBalance",
      "outputs": [
        {
          "internalType": "uint256",
          "name": "",
          "type": "uint256"
        }
      ],
      "stateMutability": "view",
      "type": "function"
    },
    {
      "inputs": [
        {
          "internalType": "address payable",
          "name": "_receiver",
          "type": "address"
        }
      ],
      "name": "setreceiver",
      "outputs": [],
      "stateMutability": "nonpayable",
      "type": "function"
    },
    {
      "inputs": [
        {
          "internalType": "uint256",
          "name": "_amount",
          "type": "uint256"
        }
      ],
      "name": "SendEther",
      "outputs": [],
      "stateMutability": "nonpayable",
      "type": "function"
    },
    {
      "inputs": [
        {
          "internalType": "uint256",
          "name": "_amount",
          "type": "uint256"
        }
      ],
      "name": "Withdraw",
      "outputs": [],
      "stateMutability": "nonpayable",
      "type": "function"
    }
  ],
  "bytecode": "0x608060405234801561001057600080fd5b50336000806101000a81548173ffffffffffffffffffffffffffffffffffffffff021916908373ffffffffffffffffffffffffffffffffffffffff1602179055506105c3806100606000396000f3fe6080604052600436106100595760003560e01c806325203da91461006557806344e73b781461008e5780635b6b431d146100b9578063925def71146100e2578063b4a99a4e1461010b578063f7260d3e1461013657610060565b3661006057005b600080fd5b34801561007157600080fd5b5061008c6004803603810190610087919061042c565b610161565b005b34801561009a57600080fd5b506100a36101a5565b6040516100b09190610472565b60405180910390f35b3480156100c557600080fd5b506100e060048036038101906100db91906104b9565b6101ad565b005b3480156100ee57600080fd5b50610109600480360381019061010491906104b9565b610285565b005b34801561011757600080fd5b5061012061037f565b60405161012d91906104f5565b60405180910390f35b34801561014257600080fd5b5061014b6103a3565b60405161015891906104f5565b60405180910390f35b80600160006101000a81548173ffffffffffffffffffffffffffffffffffffffff021916908373ffffffffffffffffffffffffffffffffffffffff16021790555050565b600047905090565b60008054906101000a900473ffffffffffffffffffffffffffffffffffffffff1673ffffffffffffffffffffffffffffffffffffffff163373ffffffffffffffffffffffffffffffffffffffff161461023b576040517f08c379a00000000000000000000000000000000000000000000000000000000081526004016102329061056d565b60405180910390fd5b3373ffffffffffffffffffffffffffffffffffffffff166108fc829081150290604051600060405180830381858888f19350505050158015610281573d6000803e3d6000fd5b5050565b60008054906101000a900473ffffffffffffffffffffffffffffffffffffffff1673ffffffffffffffffffffffffffffffffffffffff163373ffffffffffffffffffffffffffffffffffffffff1614610313576040517f08c379a000000000000000000000000000000000000000000000000000000000815260040161030a9061056d565b60405180910390fd5b600160009054906101000a900473ffffffffffffffffffffffffffffffffffffffff1673ffffffffffffffffffffffffffffffffffffffff166108fc829081150290604051600060405180830381858888f1935050505015801561037b573d6000803e3d6000fd5b5050565b60008054906101000a900473ffffffffffffffffffffffffffffffffffffffff1681565b600160009054906101000a900473ffffffffffffffffffffffffffffffffffffffff1681565b600080fd5b600073ffffffffffffffffffffffffffffffffffffffff82169050919050565b60006103f9826103ce565b9050919050565b610409816103ee565b811461041457600080fd5b50565b60008135905061042681610400565b92915050565b600060208284031215610442576104416103c9565b5b600061045084828501610417565b91505092915050565b6000819050919050565b61046c81610459565b82525050565b60006020820190506104876000830184610463565b92915050565b61049681610459565b81146104a157600080fd5b50565b6000813590506104b38161048d565b92915050565b6000602082840312156104cf576104ce6103c9565b5b60006104dd848285016104a4565b91505092915050565b6104ef816103ee565b82525050565b600060208201905061050a60008301846104e6565b92915050565b600082825260208201905092915050565b7f4f6e6c79206f776e65722063616e20746869732066756e6374696f6e20200000600082015250565b6000610557601e83610510565b915061056282610521565b602082019050919050565b600060208201905081810360008301526105868161054a565b905091905056fea2646970667358221220380be15a07b4d8bff2fe21ccc0198d58987f131b9124fbf339ac46ce5bc504d464736f6c634300080f0033",
  "immutableReferences": {},
  "source": "// SPDX-License-Identifier: GPL-3.0\r\npragma solidity ^0.8.0;\r\ncontract EtherWallet{\r\n    address payable public Owner;\r\n    address payable public receiver;\r\n    modifier OwnerOnly{\r\n        require(msg.sender==Owner,\"Only owner can this function  \");\r\n        _;\r\n    }\r\n    constructor(){\r\n        Owner=payable(msg.sender);\r\n    }\r\n    receive() external payable{}\r\n    function CheckBalance() public view returns(uint){\r\n        return address(this).balance;\r\n    }\r\n     function setreceiver(address payable _receiver) public {\r\n         receiver=_receiver;\r\n    } \r\n    function SendEther(uint _amount) public OwnerOnly{\r\n      receiver.transfer(_amount);\r\n    }\r\n    function Withdraw(uint _amount) public OwnerOnly{\r\n     payable(msg.sender).transfer(_amount);\r\n    }\r\n\r\n}",
  "sourcePath": "C:\\Users\\sony\\Desktop\\ETh\\contracts\\EtherWallet.sol",
  "compiler": {
    "name": "solc",
    "version": "0.8.15+commit.e14f2714.Emscripten.clang"
  },
  "schemaVersion": "3.4.8",
  "updatedAt": "2022-07-27T07:10:28.877Z",
  "devdoc": {
    "kind": "dev",
    "methods": {},
    "version": 1
  },
  "userdoc": {
    "kind": "user",
    "methods": {},
    "version": 1
  }
}