{
  "contractName": "Multisend",
  "abi": [
    {
      "inputs": [],
      "stateMutability": "nonpayable",
      "type": "constructor"
    },
    {
      "inputs": [
        {
          "internalType": "uint256",
          "name": "",
          "type": "uint256"
        }
      ],
      "name": "arr",
      "outputs": [
        {
          "internalType": "address payable",
          "name": "",
          "type": "address"
        }
      ],
      "stateMutability": "view",
      "type": "function"
    },
    {
      "stateMutability": "payable",
      "type": "receive"
    },
    {
      "inputs": [
        {
          "internalType": "address",
          "name": "_person",
          "type": "address"
        }
      ],
      "name": "PushAdd",
      "outputs": [],
      "stateMutability": "nonpayable",
      "type": "function"
    },
    {
      "inputs": [],
      "name": "getBalance",
      "outputs": [
        {
          "internalType": "uint256",
          "name": "",
          "type": "uint256"
        }
      ],
      "stateMutability": "view",
      "type": "function"
    },
    {
      "inputs": [
        {
          "internalType": "uint256",
          "name": "_amount",
          "type": "uint256"
        }
      ],
      "name": "SendEther",
      "outputs": [],
      "stateMutability": "payable",
      "type": "function"
    }
  ],
  "bytecode": "0x608060405234801561001057600080fd5b5033600160006101000a81548173ffffffffffffffffffffffffffffffffffffffff021916908373ffffffffffffffffffffffffffffffffffffffff1602179055506106b7806100616000396000f3fe6080604052600436106100435760003560e01c806312065fe01461004f57806371e5ee5f1461007a578063925def71146100b7578063de846b1e146100d35761004a565b3661004a57005b600080fd5b34801561005b57600080fd5b506100646100fc565b604051610071919061041e565b60405180910390f35b34801561008657600080fd5b506100a1600480360381019061009c919061046a565b610194565b6040516100ae91906104d8565b60405180910390f35b6100d160048036038101906100cc919061046a565b6101d3565b005b3480156100df57600080fd5b506100fa60048036038101906100f59190610531565b61030f565b005b6000600160009054906101000a900473ffffffffffffffffffffffffffffffffffffffff1673ffffffffffffffffffffffffffffffffffffffff163373ffffffffffffffffffffffffffffffffffffffff161461018e576040517f08c379a0000000000000000000000000000000000000000000000000000000008152600401610185906105bb565b60405180910390fd5b47905090565b600081815481106101a457600080fd5b906000526020600020016000915054906101000a900473ffffffffffffffffffffffffffffffffffffffff1681565b600160009054906101000a900473ffffffffffffffffffffffffffffffffffffffff1673ffffffffffffffffffffffffffffffffffffffff163373ffffffffffffffffffffffffffffffffffffffff1614610263576040517f08c379a000000000000000000000000000000000000000000000000000000000815260040161025a906105bb565b60405180910390fd5b60005b60008054905081101561030b5760008181548110610287576102866105db565b5b9060005260206000200160009054906101000a900473ffffffffffffffffffffffffffffffffffffffff1673ffffffffffffffffffffffffffffffffffffffff166108fc839081150290604051600060405180830381858888f193505050501580156102f7573d6000803e3d6000fd5b50808061030390610639565b915050610266565b5050565b600160009054906101000a900473ffffffffffffffffffffffffffffffffffffffff1673ffffffffffffffffffffffffffffffffffffffff163373ffffffffffffffffffffffffffffffffffffffff161461039f576040517f08c379a0000000000000000000000000000000000000000000000000000000008152600401610396906105bb565b60405180910390fd5b6000819080600181540180825580915050600190039060005260206000200160009091909190916101000a81548173ffffffffffffffffffffffffffffffffffffffff021916908373ffffffffffffffffffffffffffffffffffffffff16021790555050565b6000819050919050565b61041881610405565b82525050565b6000602082019050610433600083018461040f565b92915050565b600080fd5b61044781610405565b811461045257600080fd5b50565b6000813590506104648161043e565b92915050565b6000602082840312156104805761047f610439565b5b600061048e84828501610455565b91505092915050565b600073ffffffffffffffffffffffffffffffffffffffff82169050919050565b60006104c282610497565b9050919050565b6104d2816104b7565b82525050565b60006020820190506104ed60008301846104c9565b92915050565b60006104fe82610497565b9050919050565b61050e816104f3565b811461051957600080fd5b50565b60008135905061052b81610505565b92915050565b60006020828403121561054757610546610439565b5b60006105558482850161051c565b91505092915050565b600082825260208201905092915050565b7f596f7520617265206e6f7420616c6c6f77656400000000000000000000000000600082015250565b60006105a560138361055e565b91506105b08261056f565b602082019050919050565b600060208201905081810360008301526105d481610598565b9050919050565b7f4e487b7100000000000000000000000000000000000000000000000000000000600052603260045260246000fd5b7f4e487b7100000000000000000000000000000000000000000000000000000000600052601160045260246000fd5b600061064482610405565b91507fffffffffffffffffffffffffffffffffffffffffffffffffffffffffffffffff82036106765761067561060a565b5b60018201905091905056fea2646970667358221220422ae1f8af1d3fbee278747f7d8481b38691a16105c596b0442fa4525280d5c764736f6c634300080f0033",
  "immutableReferences": {},
  "source": "// SPDX-License-Identifier: GPL-3.0\r\npragma solidity ^0.8.0;\r\ncontract Multisend{\r\n    address payable[] public arr;\r\n    address admin;\r\n    modifier adminOnly{\r\n        require(msg.sender==admin,\"You are not allowed\");\r\n        _;\r\n    }\r\n    constructor(){\r\n        admin=msg.sender;\r\n    }\r\n    function PushAdd(address _person) public adminOnly {\r\n        arr.push(payable(_person));\r\n    }\r\n    receive() external payable{\r\n\r\n    }\r\n    function getBalance() public view adminOnly returns(uint){\r\n        return address(this).balance;\r\n    }\r\n  function SendEther(uint _amount) public payable adminOnly{\r\n      for(uint i=0;i<arr.length;i++){\r\n        \r\n         arr[i].transfer(_amount);\r\n      }\r\n  }\r\n}",
  "sourcePath": "C:\\Users\\sony\\Desktop\\ETh\\contracts\\MultiSend.sol",
  "compiler": {
    "name": "solc",
    "version": "0.8.15+commit.e14f2714.Emscripten.clang"
  },
  "schemaVersion": "3.4.8",
  "updatedAt": "2022-07-27T07:10:28.884Z",
  "devdoc": {
    "kind": "dev",
    "methods": {},
    "version": 1
  },
  "userdoc": {
    "kind": "user",
    "methods": {},
    "version": 1
  }
}