{
  "contractName": "Project",
  "abi": [
    {
      "inputs": [],
      "stateMutability": "nonpayable",
      "type": "constructor"
    },
    {
      "anonymous": false,
      "inputs": [
        {
          "indexed": false,
          "internalType": "uint256",
          "name": "rating",
          "type": "uint256"
        }
      ],
      "name": "eEvent1",
      "type": "event"
    },
    {
      "inputs": [
        {
          "internalType": "uint256",
          "name": "",
          "type": "uint256"
        }
      ],
      "name": "studentList",
      "outputs": [
        {
          "internalType": "address",
          "name": "",
          "type": "address"
        }
      ],
      "stateMutability": "view",
      "type": "function"
    },
    {
      "inputs": [
        {
          "internalType": "address",
          "name": "_studentId",
          "type": "address"
        }
      ],
      "name": "addStudent",
      "outputs": [],
      "stateMutability": "nonpayable",
      "type": "function"
    },
    {
      "inputs": [
        {
          "internalType": "string",
          "name": "_key",
          "type": "string"
        },
        {
          "internalType": "address",
          "name": "_studentId",
          "type": "address"
        },
        {
          "internalType": "string",
          "name": "_departmentName",
          "type": "string"
        },
        {
          "internalType": "uint256",
          "name": "_ratingScore",
          "type": "uint256"
        }
      ],
      "name": "setValues",
      "outputs": [],
      "stateMutability": "nonpayable",
      "type": "function"
    },
    {
      "inputs": [
        {
          "internalType": "string",
          "name": "_key",
          "type": "string"
        },
        {
          "internalType": "string",
          "name": "_departmentName",
          "type": "string"
        }
      ],
      "name": "getRating",
      "outputs": [
        {
          "internalType": "uint256",
          "name": "",
          "type": "uint256"
        }
      ],
      "stateMutability": "nonpayable",
      "type": "function"
    }
  ],
  "bytecode": "0x608060405234801561001057600080fd5b5033600160006101000a81548173ffffffffffffffffffffffffffffffffffffffff021916908373ffffffffffffffffffffffffffffffffffffffff160217905550610c27806100616000396000f3fe608060405234801561001057600080fd5b506004361061004c5760003560e01c806362697579146100515780637df221e914610081578063bd06ea19146100b1578063e126924f146100cd575b600080fd5b61006b60048036038101906100669190610540565b6100e9565b60405161007891906105d1565b60405180910390f35b61009b60048036038101906100969190610618565b6101a5565b6040516100a89190610686565b60405180910390f35b6100cb60048036038101906100c691906106cd565b6101e4565b005b6100e760048036038101906100e291906106fa565b6102da565b005b60007fd818b53ea2a6d9467dc85d3c79a4a6a2a93cee328ee73c5d0fdd17e8eb21ce6260028460405161011c9190610813565b90815260200160405180910390206001018360405161013b9190610813565b90815260200160405180910390205460405161015791906105d1565b60405180910390a160028360405161016f9190610813565b90815260200160405180910390206001018260405161018e9190610813565b908152602001604051809103902054905092915050565b600081815481106101b557600080fd5b906000526020600020016000915054906101000a900473ffffffffffffffffffffffffffffffffffffffff1681565b600160009054906101000a900473ffffffffffffffffffffffffffffffffffffffff1673ffffffffffffffffffffffffffffffffffffffff163373ffffffffffffffffffffffffffffffffffffffff1614610274576040517f08c379a000000000000000000000000000000000000000000000000000000000815260040161026b90610887565b60405180910390fd5b6000819080600181540180825580915050600190039060005260206000200160009091909190916101000a81548173ffffffffffffffffffffffffffffffffffffffff021916908373ffffffffffffffffffffffffffffffffffffffff16021790555050565b828073ffffffffffffffffffffffffffffffffffffffff163373ffffffffffffffffffffffffffffffffffffffff1614610349576040517f08c379a0000000000000000000000000000000000000000000000000000000008152600401610340906108f3565b60405180910390fd5b6002856040516103599190610813565b90815260200160405180910390206000018390806001815401808255809150506001900390600052602060002001600090919091909150908161039c9190610b1f565b50816002866040516103ae9190610813565b9081526020016040518091039020600101846040516103cd9190610813565b9081526020016040518091039020819055505050505050565b6000604051905090565b600080fd5b600080fd5b600080fd5b600080fd5b6000601f19601f8301169050919050565b7f4e487b7100000000000000000000000000000000000000000000000000000000600052604160045260246000fd5b61044d82610404565b810181811067ffffffffffffffff8211171561046c5761046b610415565b5b80604052505050565b600061047f6103e6565b905061048b8282610444565b919050565b600067ffffffffffffffff8211156104ab576104aa610415565b5b6104b482610404565b9050602081019050919050565b82818337600083830152505050565b60006104e36104de84610490565b610475565b9050828152602081018484840111156104ff576104fe6103ff565b5b61050a8482856104c1565b509392505050565b600082601f830112610527576105266103fa565b5b81356105378482602086016104d0565b91505092915050565b60008060408385031215610557576105566103f0565b5b600083013567ffffffffffffffff811115610575576105746103f5565b5b61058185828601610512565b925050602083013567ffffffffffffffff8111156105a2576105a16103f5565b5b6105ae85828601610512565b9150509250929050565b6000819050919050565b6105cb816105b8565b82525050565b60006020820190506105e660008301846105c2565b92915050565b6105f5816105b8565b811461060057600080fd5b50565b600081359050610612816105ec565b92915050565b60006020828403121561062e5761062d6103f0565b5b600061063c84828501610603565b91505092915050565b600073ffffffffffffffffffffffffffffffffffffffff82169050919050565b600061067082610645565b9050919050565b61068081610665565b82525050565b600060208201905061069b6000830184610677565b92915050565b6106aa81610665565b81146106b557600080fd5b50565b6000813590506106c7816106a1565b92915050565b6000602082840312156106e3576106e26103f0565b5b60006106f1848285016106b8565b91505092915050565b60008060008060808587031215610714576107136103f0565b5b600085013567ffffffffffffffff811115610732576107316103f5565b5b61073e87828801610512565b945050602061074f878288016106b8565b935050604085013567ffffffffffffffff8111156107705761076f6103f5565b5b61077c87828801610512565b925050606061078d87828801610603565b91505092959194509250565b600081519050919050565b600081905092915050565b60005b838110156107cd5780820151818401526020810190506107b2565b838111156107dc576000848401525b50505050565b60006107ed82610799565b6107f781856107a4565b93506108078185602086016107af565b80840191505092915050565b600061081f82846107e2565b915081905092915050565b600082825260208201905092915050565b7f596f7520617265206e6f7420617574686f726973656400000000000000000000600082015250565b600061087160168361082a565b915061087c8261083b565b602082019050919050565b600060208201905081810360008301526108a081610864565b9050919050565b7f596f7520617265206e6f74207065726d697474656420746f2072657669657700600082015250565b60006108dd601f8361082a565b91506108e8826108a7565b602082019050919050565b6000602082019050818103600083015261090c816108d0565b9050919050565b7f4e487b7100000000000000000000000000000000000000000000000000000000600052602260045260246000fd5b6000600282049050600182168061095a57607f821691505b60208210810361096d5761096c610913565b5b50919050565b60008190508160005260206000209050919050565b60006020601f8301049050919050565b600082821b905092915050565b6000600883026109d57fffffffffffffffffffffffffffffffffffffffffffffffffffffffffffffffff82610998565b6109df8683610998565b95508019841693508086168417925050509392505050565b6000819050919050565b6000610a1c610a17610a12846105b8565b6109f7565b6105b8565b9050919050565b6000819050919050565b610a3683610a01565b610a4a610a4282610a23565b8484546109a5565b825550505050565b600090565b610a5f610a52565b610a6a818484610a2d565b505050565b5b81811015610a8e57610a83600082610a57565b600181019050610a70565b5050565b601f821115610ad357610aa481610973565b610aad84610988565b81016020851015610abc578190505b610ad0610ac885610988565b830182610a6f565b50505b505050565b600082821c905092915050565b6000610af660001984600802610ad8565b1980831691505092915050565b6000610b0f8383610ae5565b9150826002028217905092915050565b610b2882610799565b67ffffffffffffffff811115610b4157610b40610415565b5b610b4b8254610942565b610b56828285610a92565b600060209050601f831160018114610b895760008415610b77578287015190505b610b818582610b03565b865550610be9565b601f198416610b9786610973565b60005b82811015610bbf57848901518255600182019150602085019450602081019050610b9a565b86831015610bdc5784890151610bd8601f891682610ae5565b8355505b6001600288020188555050505b50505050505056fea26469706673582212206bf55daa1f7eff9f59978f474a22e7bc495003f9dd522e8547e2bf0d2649f51464736f6c634300080f0033",
  "immutableReferences": {},
  "source": "// SPDX-License-Identifier: GPL-3.0\r\npragma solidity ^0.8.0;\r\ncontract Project{\r\n    address[] public studentList;\r\n    struct collegeRatingStructure{\r\n        string[] DepartmentNameList;\r\n        mapping(string=>uint) Rating;\r\n    }\r\n      address admin;\r\n      constructor(){\r\n          admin=msg.sender;\r\n      }\r\n      event eEvent1(uint rating);\r\n      modifier mOwnerOnly{\r\n          require(msg.sender==admin,\"You are not authorised\");\r\n          _;\r\n      }\r\n      modifier mStudentOnly(address _studentId){\r\n         require(msg.sender==_studentId,\"You are not permitted to review\");\r\n         _;\r\n      }\r\n    mapping(string=>collegeRatingStructure) college;\r\n    function addStudent(address _studentId ) public mOwnerOnly{\r\n        studentList.push(_studentId);\r\n    }\r\n    function setValues(string memory _key,address _studentId, string memory _departmentName, uint _ratingScore) public mStudentOnly(_studentId){\r\n         college[_key].DepartmentNameList.push(_departmentName);\r\n         college[_key].Rating[_departmentName]=_ratingScore; //rating out of 10\r\n    }\r\nfunction getRating(string memory _key,string memory _departmentName) public  returns(uint){\r\n    emit eEvent1(college[_key].Rating[_departmentName]);\r\n    return college[_key].Rating[_departmentName];\r\n} \r\n}",
  "sourcePath": "C:\\Users\\sony\\Desktop\\ETh\\contracts\\CollegeDepartmentRatingSystem.sol",
  "compiler": {
    "name": "solc",
    "version": "0.8.15+commit.e14f2714.Emscripten.clang"
  },
  "schemaVersion": "3.4.8",
  "updatedAt": "2022-07-27T07:10:28.849Z",
  "devdoc": {
    "kind": "dev",
    "methods": {},
    "version": 1
  },
  "userdoc": {
    "kind": "user",
    "methods": {},
    "version": 1
  }
}