{
  "contractName": "Result",
  "abi": [
    {
      "inputs": [],
      "stateMutability": "nonpayable",
      "type": "constructor"
    },
    {
      "anonymous": false,
      "inputs": [
        {
          "indexed": false,
          "internalType": "bool",
          "name": "grade",
          "type": "bool"
        }
      ],
      "name": "eGrade",
      "type": "event"
    },
    {
      "anonymous": false,
      "inputs": [
        {
          "indexed": false,
          "internalType": "uint256",
          "name": "_marks",
          "type": "uint256"
        }
      ],
      "name": "eSubjectsmarks",
      "type": "event"
    },
    {
      "inputs": [],
      "name": "PrincipleAdd",
      "outputs": [
        {
          "internalType": "address",
          "name": "",
          "type": "address"
        }
      ],
      "stateMutability": "view",
      "type": "function"
    },
    {
      "inputs": [
        {
          "internalType": "address",
          "name": "_studentId",
          "type": "address"
        },
        {
          "internalType": "uint256",
          "name": "_subjectId",
          "type": "uint256"
        },
        {
          "internalType": "uint256",
          "name": "_marks",
          "type": "uint256"
        }
      ],
      "name": "AddstudentMarks",
      "outputs": [],
      "stateMutability": "nonpayable",
      "type": "function"
    },
    {
      "inputs": [
        {
          "internalType": "address",
          "name": "_studentId",
          "type": "address"
        },
        {
          "internalType": "uint256",
          "name": "_subjectId",
          "type": "uint256"
        }
      ],
      "name": "GetsubjectMarks",
      "outputs": [
        {
          "internalType": "uint256",
          "name": "",
          "type": "uint256"
        }
      ],
      "stateMutability": "view",
      "type": "function"
    },
    {
      "inputs": [
        {
          "internalType": "address",
          "name": "_studentId",
          "type": "address"
        }
      ],
      "name": "getTotalMarks",
      "outputs": [
        {
          "internalType": "uint256",
          "name": "",
          "type": "uint256"
        }
      ],
      "stateMutability": "view",
      "type": "function"
    },
    {
      "inputs": [
        {
          "internalType": "address",
          "name": "_studentId",
          "type": "address"
        }
      ],
      "name": "addGrade",
      "outputs": [
        {
          "internalType": "bool",
          "name": "",
          "type": "bool"
        }
      ],
      "stateMutability": "nonpayable",
      "type": "function"
    }
  ],
  "bytecode": "0x608060405234801561001057600080fd5b50336000806101000a81548173ffffffffffffffffffffffffffffffffffffffff021916908373ffffffffffffffffffffffffffffffffffffffff160217905550610b3d806100606000396000f3fe608060405234801561001057600080fd5b50600436106100575760003560e01c806327ff9af41461005c578063345d94d61461008c5780634e74cf69146100aa578063b8b23d10146100da578063cc75d5cc146100f6575b600080fd5b610076600480360381019061007191906107d8565b610126565b6040516100839190610827565b60405180910390f35b61009461024a565b6040516100a19190610851565b60405180910390f35b6100c460048036038101906100bf919061086c565b61026e565b6040516100d19190610827565b60405180910390f35b6100f460048036038101906100ef9190610899565b610463565b005b610110600480360381019061010b919061086c565b610560565b60405161011d9190610907565b60405180910390f35b6000828073ffffffffffffffffffffffffffffffffffffffff163373ffffffffffffffffffffffffffffffffffffffff1614806101ae575060008054906101000a900473ffffffffffffffffffffffffffffffffffffffff1673ffffffffffffffffffffffffffffffffffffffff163373ffffffffffffffffffffffffffffffffffffffff16145b6101ed576040517f08c379a00000000000000000000000000000000000000000000000000000000081526004016101e49061097f565b60405180910390fd5b600160008573ffffffffffffffffffffffffffffffffffffffff1673ffffffffffffffffffffffffffffffffffffffff16815260200190815260200160002060010160008481526020019081526020016000205491505092915050565b60008054906101000a900473ffffffffffffffffffffffffffffffffffffffff1681565b6000818073ffffffffffffffffffffffffffffffffffffffff163373ffffffffffffffffffffffffffffffffffffffff1614806102f6575060008054906101000a900473ffffffffffffffffffffffffffffffffffffffff1673ffffffffffffffffffffffffffffffffffffffff163373ffffffffffffffffffffffffffffffffffffffff16145b610335576040517f08c379a000000000000000000000000000000000000000000000000000000000815260040161032c9061097f565b60405180910390fd5b6000805b600160008673ffffffffffffffffffffffffffffffffffffffff1673ffffffffffffffffffffffffffffffffffffffff168152602001908152602001600020600001805490508110156104585781600160008773ffffffffffffffffffffffffffffffffffffffff1673ffffffffffffffffffffffffffffffffffffffff1681526020019081526020016000206001016000600160008973ffffffffffffffffffffffffffffffffffffffff1673ffffffffffffffffffffffffffffffffffffffff168152602001908152602001600020600001848154811061041f5761041e61099f565b5b906000526020600020015481526020019081526020016000205461044391906109fd565b9150808061045090610a53565b915050610339565b508092505050919050565b600160008473ffffffffffffffffffffffffffffffffffffffff1673ffffffffffffffffffffffffffffffffffffffff16815260200190815260200160002060000182908060018154018082558091505060019003906000526020600020016000909190919091505580600160008573ffffffffffffffffffffffffffffffffffffffff1673ffffffffffffffffffffffffffffffffffffffff1681526020019081526020016000206001016000848152602001908152602001600020819055507f7de3522d8c5446ba7608c3d42fddb570934665842755f064d2a62984e3a3a718816040516105539190610827565b60405180910390a1505050565b60003373ffffffffffffffffffffffffffffffffffffffff1660008054906101000a900473ffffffffffffffffffffffffffffffffffffffff1673ffffffffffffffffffffffffffffffffffffffff16146105f0576040517f08c379a00000000000000000000000000000000000000000000000000000000081526004016105e790610ae7565b60405180910390fd5b60006105fb8361026e565b905060638111156106615760018060008573ffffffffffffffffffffffffffffffffffffffff1673ffffffffffffffffffffffffffffffffffffffff16815260200190815260200160002060020160006101000a81548160ff0219169083151502179055505b7f2094e2605eba64c8106a2b329ae46f551247a5fa7d30e9fa11ea9dfe5b232c38600160008573ffffffffffffffffffffffffffffffffffffffff1673ffffffffffffffffffffffffffffffffffffffff16815260200190815260200160002060020160009054906101000a900460ff166040516106df9190610907565b60405180910390a1600160008473ffffffffffffffffffffffffffffffffffffffff1673ffffffffffffffffffffffffffffffffffffffff16815260200190815260200160002060020160009054906101000a900460ff16915050919050565b600080fd5b600073ffffffffffffffffffffffffffffffffffffffff82169050919050565b600061076f82610744565b9050919050565b61077f81610764565b811461078a57600080fd5b50565b60008135905061079c81610776565b92915050565b6000819050919050565b6107b5816107a2565b81146107c057600080fd5b50565b6000813590506107d2816107ac565b92915050565b600080604083850312156107ef576107ee61073f565b5b60006107fd8582860161078d565b925050602061080e858286016107c3565b9150509250929050565b610821816107a2565b82525050565b600060208201905061083c6000830184610818565b92915050565b61084b81610764565b82525050565b60006020820190506108666000830184610842565b92915050565b6000602082840312156108825761088161073f565b5b60006108908482850161078d565b91505092915050565b6000806000606084860312156108b2576108b161073f565b5b60006108c08682870161078d565b93505060206108d1868287016107c3565b92505060406108e2868287016107c3565b9150509250925092565b60008115159050919050565b610901816108ec565b82525050565b600060208201905061091c60008301846108f8565b92915050565b600082825260208201905092915050565b7f4d61726b732063616e27742062652076697369626c6521000000000000000000600082015250565b6000610969601783610922565b915061097482610933565b602082019050919050565b600060208201905081810360008301526109988161095c565b9050919050565b7f4e487b7100000000000000000000000000000000000000000000000000000000600052603260045260246000fd5b7f4e487b7100000000000000000000000000000000000000000000000000000000600052601160045260246000fd5b6000610a08826107a2565b9150610a13836107a2565b9250827fffffffffffffffffffffffffffffffffffffffffffffffffffffffffffffffff03821115610a4857610a476109ce565b5b828201905092915050565b6000610a5e826107a2565b91507fffffffffffffffffffffffffffffffffffffffffffffffffffffffffffffffff8203610a9057610a8f6109ce565b5b600182019050919050565b7f596f7520617265206e6f7420617574686f726973656421000000000000000000600082015250565b6000610ad1601783610922565b9150610adc82610a9b565b602082019050919050565b60006020820190508181036000830152610b0081610ac4565b905091905056fea26469706673582212208fc233425ce9014d88bdab129d56dce21723196bd9e8846a0dc02dea2ecc88f664736f6c634300080f0033",
  "immutableReferences": {},
  "source": "// SPDX-License-Identifier: GPL-3.0\r\npragma solidity ^0.8.0;\r\ncontract Result{\r\n    address public PrincipleAdd;\r\n    struct studentMarksStructure{\r\n    uint[] subjectList;\r\n    mapping(uint=>uint) subjectmarks;\r\n    bool grade;\r\n}\r\n mapping(address=>studentMarksStructure) studentResult;\r\n modifier mOwnerOnly{\r\n     require(PrincipleAdd==msg.sender, \"You are not authorised!\");\r\n     _;\r\n }\r\n modifier mStudentOnly(address _studentId){\r\n      require(msg.sender==_studentId || msg.sender==PrincipleAdd , \"Marks can't be visible!\");\r\n      _;\r\n }\r\n event eSubjectsmarks(uint _marks );\r\n event eGrade(bool grade);\r\n constructor(){\r\n     PrincipleAdd=msg.sender;\r\n }\r\n function AddstudentMarks(address _studentId, uint _subjectId, uint _marks) public{\r\n    studentResult[_studentId].subjectList.push(_subjectId);\r\n    studentResult[_studentId].subjectmarks[_subjectId]=_marks;\r\n    emit eSubjectsmarks(_marks);\r\n }\r\n function GetsubjectMarks(address _studentId,uint _subjectId) public view mStudentOnly(_studentId)  returns(uint){\r\n    return studentResult[_studentId].subjectmarks[_subjectId];\r\n }\r\n function getTotalMarks(address _studentId) public view mStudentOnly(_studentId) returns(uint){\r\n     uint totalMarks=0;\r\n     for(uint i=0;i<studentResult[_studentId].subjectList.length;i++){\r\n     totalMarks=studentResult[_studentId].subjectmarks[studentResult[_studentId].subjectList[i]]+totalMarks;\r\n     }\r\n     return totalMarks;\r\n }\r\n function addGrade(address _studentId) public mOwnerOnly returns(bool){\r\n     uint _total=getTotalMarks( _studentId);\r\n     if(_total>99){\r\n     studentResult[_studentId].grade=true;\r\n     }\r\n     emit eGrade(studentResult[_studentId].grade);\r\n     return studentResult[_studentId].grade;\r\n }\r\n}",
  "sourcePath": "C:\\Users\\sony\\Desktop\\ETh\\contracts\\ResultOfStudent.sol",
  "compiler": {
    "name": "solc",
    "version": "0.8.15+commit.e14f2714.Emscripten.clang"
  },
  "schemaVersion": "3.4.8",
  "updatedAt": "2022-07-27T07:10:28.891Z",
  "devdoc": {
    "kind": "dev",
    "methods": {},
    "version": 1
  },
  "userdoc": {
    "kind": "user",
    "methods": {},
    "version": 1
  }
}